:10000000401A0020790C0000B14D0000650C000082
:10001000650C0000650C0000650C0000650C00001C
:10002000000000000000000000000000250E00009D
:10003000650C000000000000E50D0000650C0000EC
:10004000810F0000810F0000810F0000810F000070
:10005000810F0000810F0000810F0000810F000060
:10006000810F0000810F0000810F0000810F000050
:10007000810F0000810F0000810F0000810F000040
:10008000810F0000810F0000810F0000810F000030
:10009000810F0000810F0000810F0000810F000020
:1000A000810F0000810F0000810F0000810F000010
:1000B000810F0000810F0000810F0000810F000000
:1000C000810F0000810F0000810F0000810F0000F0
:1000D000810F0000810F0000810F0000810F0000E0
:1000E000810F0000810F0000810F0000810F0000D0
:1000F000810F0000810F0000810F0000810F0000C0
:10010000810F0000810F0000810F0000810F0000AF
:10011000810F0000810F0000810F0000810F00009F
:10012000810F0000810F0000810F0000810F00008F
:10013000810F0000810F0000810F0000810F00007F
:04014000810F00002B
:1001440053B94AB9002908BF00281CBF4FF0FF313A
:100154004FF0FF3000F00CB8ADF1080C6DE904CE9F
:1001640000F008F8DDF804E0DDE9022304B070478C
:10017400704700BF2DE9F04786468C460846089E26
:10018400154674461946002B40F0C1808542B2FAE8
:1001940082F245D94AB1C2F1200300FA02FC95402B
:1001A40094402EFA03F343EA0C0C4FEA154EA8B21E
:1001B400230CBCFBFEF80EFB18CC08FB00F943EA49
:1001C4000C43994528D9EB1808F1FF3704D2994517
:1001D40002D9A8F102072B44A3EB0903A4B2B3FB91
:1001E400FEFC0EFB1C330CFB00F044EA0344A0426B
:1001F40014D92C190CF1FF3304D2A04202D9ACF16A
:1002040002032C44241A43EA07401EB1D4400023BD
:1002140034607360BDE8F0874746DDE76346F1E785
:1002240092BB431B01214FEA154EAFB2200CB3FB26
:10023400FEFC0EFB1C330CFB07F840EA0343984515
:1002440061D9EB180CF1FF3004D2984502D9ACF116
:1002540002002B44A3EB0803A4B2B3FBFEFC0EFB89
:100264001C330CFB07F744EA0344A7424DD92C196D
:100274000CF1FF3304D2A74202D9ACF102032C449F
:10028400E41B43EA0040C0E7C2F1200395409440D8
:1002940020FA03F12EFA03F34FEA154E9040AFB261
:1002A4000343B1FBFEFC0EFB1C10190C0CFB07F8FE
:1002B40041EA0041884522D969180CF1FF3004D283
:1002C400884502D9ACF102002944A1EB08019BB294
:1002D400B1FBFEFC0EFB1C110CFB07F743EA0143C8
:1002E4009F420ED9EB180CF1FF3104D29F4202D980
:1002F400ACF102012B44DB1B41EA004193E7604669
:10030400E3E76146F7E76046A4E76346B8E783425C
:1003140006D916B9002108467CE7C6E900E0F9E7EA
:10032400B3FA83F78FB9834201D3724508D8BEEB81
:10033400020460EB030301209C461EB9002169E717
:100344003846FAE7C6E9004CF8E7C7F1200CBB4091
:100354000EFA07F522FA0CF42EFA0CF1BA401C43FB
:1003640020FA0CF3B8404FEA144901431FFA84FE03
:10037400B3FBF9F809FB18300B0C08FB0EFA43EA3F
:1003840000439A4540D9E31808F1FF3004D29A4556
:1003940002D9A8F102002344A3EB0A0389B2B3FBF8
:1003A400F9F809FB183308FB0EFE41EA03418E45B8
:1003B4002CD9611808F1FF3304D28E4502D9A8F173
:1003C4000203214443EA0040A1EB0E01A0FB029882
:1003D4004145CE46434602D306D14D4504D20138A9
:1003E400B9EB020E68EB0403002EA7D0B5EB0E02A6
:1003F40061EB030101FA0CFC22FA07F3F9404CEA21
:100404000303C6E9003199E74046C5E74346D9E707
:10041400034613F8012B002AFBD1181A0138704740
:100424000B7813B1012B03D07047024804F0CEBB04
:100434000148FBE7C8600000DB6000002DE9F843D9
:10044400234E306805F085F930B9224804F0BEFB2C
:1004540001252846BDE8F883306883681B680BB320
:1004640000221D4998470446F0B9DFF870801C4FFC
:10047400424623461421384604F0B6F83846FFF7BE
:10048400C7FF35680246AB682846D3F8049039465E
:100494004FF0FF33C847054660B10146114804F0E8
:1004A40095FBD6E76FF0570421460F4804F08EFB06
:1004B4002546CEE701344FF40040002103F0F4FB5D
:1004C400032CD5D1002140F6CD4003F0EDFBC0E76D
:1004D400A0010020F1600000250400002361000059
:1004E400D40C00202C61000007610000014B1B6844
:1004F400184700BFA401002030B585B004460D465E
:1005040010220021684605F05FFB02238DF80230BB
:10051400044B2A4621466846019304F091F805B03D
:1005240030BD00BFF1040000014B1860704700BFEC
:10053400A401002080B505460E461746984603F0F0
:10054400D1FB034605F050FB0446DFF81890424601
:1005540049F8003039463046A84754F8090000F0FD
:10056400F1FB00BF080000002DE9F047058B0446AD
:100574002807904611D4022905F0070540F0CC80E5
:10058400204604F030FB78B10138218B042811D8BF
:10059400DFE800F0C2106D85950001290CBF45F01D
:1005A400100545F02005258388F31188BFF36F8F6C
:1005B400BDE8F08701F0070AAA4500F0A5800027EE
:1005C400B9463E46A368002B00F0BC8041F0080108
:1005D400218388F31188BFF36F8FA168002900F08D
:1005E400BA800D68002900F0B68033465246204692
:1005F400D1F80480C047002D76D02B6829461D46CB
:10060400F0E701F007035A1F012A1BD8002221F04A
:100614000701062B276889B2C4E9002209D13B46A9
:1006240003E0628B013262831B68002BF9D141F035
:1006340002012046218304F0D6FA00287AD041F042
:10064400200176E0042B0AD121F0070189B220466B
:10065400218304F0C8FA10B141F020012183218BD9
:1006640001F0070AAA454FD00027B946AAE7236933
:1006740021F0070141F00601062DD3F800902183F3
:100684002DD1B9F1000F3FD041F00801218388F347
:100694001188BFF36F8F20463949C84729E021F0FC
:1006A4000701236941F0040189B2042DD3F80490B1
:1006B4002183E6D000274FF0040A3E4682E721F06A
:1006C4000701236941F0050189B2052DD3F808908B
:1006D4002183D6D000274FF0050A3E4672E7002753
:1006E4004FF0060A3E466DE72B4687E7B9F1000F47
:1006F400D1D1EFF31188202383F31288BFF36F8FD6
:10070400238B23F008032383258BEA062ED525F0BB
:100714001003238305F007056669218B002EBFF6BD
:1007240070AF00232768C4E9003321F0070141F0CA
:1007340001012183218B4FF0000901F0070AAA452A
:100744007FF440AF002F9CD041F00801218388F34F
:100754001188BFF36F8F002FC8D03D6839463346E8
:100764005246204604F06BFA2F46F4E7AB067FF5B9
:100774001BAF25F02003238305F0070500E700BF26
:100784006F4C0000014B036000207047B85E00000E
:1007940008B5044804F01AFABDE80840024804F019
:1007A40015BA00BF456100007A610000014803F0FA
:1007B40071BD00BFB85E000038B5044618B90F4BD0
:1007C4000F485B6898476168B1F5683F10D0B1F590
:1007D400680F0DD00B4DA9420AD011F4686120684E
:1007E40007D00146084805F00AF800232360656035
:1007F40038BD142205F0E8F9F9E700BF88020020AB
:10080400A86100002C5F5CA9000A002008B500B3B1
:100814004368B3F5683F0CD101220368D3E8EF1FA6
:10082400002903D1C3E8E02F0028F7D10DD100201F
:1008340008BD094A93420AD000684FF0FF324FF0D6
:10084400FF3302F073FE0028F1D00448F0E70448B7
:10085400EEE76FF4E040EBE72C5F5CA9E98FFFFF64
:10086400EA8FFFFF08B5B8B14368B3F5683F0CD110
:1008740000220368D3E8EF1F012903D1C3E8E02F66
:100884000028F7D10BD1002008BD074A934208D0B5
:10089400006802F0C3FEF6E76FF4E040F4E70348B3
:1008A400F2E70348F0E700BF2C5F5CA9E98FFFFF84
:1008B400EA8FFFFF10B5044618B91D4B1D485B684D
:1008C40098476368B3F5683F2FD0B3F5680F2CD011
:1008D400194A934219D1236803BB4FF0FF324FF0FA
:1008E400FF332146154802F0F3FD08B923681BB90C
:1008F4000F4B13485B68984714220021206805F0C9
:1009040063F94FF46863636008E0B3F5683F0DD89A
:100914003A2B03D040F6BA629342DED1206804F049
:10092400A6FF636843F03A03636010BD054AF3E72A
:1009340088020020A86100002C5F5CA9000A002046
:10094400CE6100003A00003A08B50649402314225B
:10095400054804F046FFBDE808400449044803F094
:100964000BBD00BF00050020000A0020C05E00008F
:10097400D45E000030BFFFF7FDBF00BF2DE9F0419A
:1009840005460B4EDFF82C80324606EB0807CC1BDD
:100994002046094905F00BF9A01942460021083CFC
:1009A40005F012F92C6707F10800BDE8F08100BFDB
:1009B4000000000004000000B05E0000074A9368D5
:1009C40093F90E10002907DB526993421FBF044AB2
:1009D400536843F080535360704700BFCC0A002033
:1009E40000ED00E0154B9A6A12F0007F9A6A14BF7A
:1009F4001E201D2012F0807F9A6A18BF1F2012F457
:100A0400801F9A6A18BF022012F4002F9A6A18BF36
:100A1400212012F4802F9A6A18BF222012F4003F7A
:100A24009A6A18BF232012F4803F9A6A18BF2420C0
:100A34006FEA02426FEA12429A62704700ED00E0E8
:100A440010B5194B0246986A9C6A10F4805F14BF73
:100A54001720162014F4006F9C6A18BF1820A405F0
:100A640009D5986B986A000404D51AB19A6A22F4DD
:100A740000429A6219200C4B9A6A12F4806F9A6AA7
:100A840018BF1A20D2050CD49B6A13F4005F18BF58
:100A94001C20054A936A43F47F43936200230B703E
:100AA40010BD1B20F5E700BF00ED00E010B51C4BA6
:100AB4000246986A9C6A10F0100F14BF112010208F
:100AC40014F0080F9C6A18BF1220A40709D5586BAC
:100AD400986A000604D51AB19A6A22F080029A62D2
:100AE40013200F4B9A6A12F0010F9A6A18BF142050
:100AF40012F0200F9A6A18BF1520D40658BF9B6ABB
:100B0400074B9A6A920642BF5A6A22F400525A620A
:100B14009A6A42F0FF029A6200230B7010BD00BF74
:100B240000ED00E0F0B5474B04465B6800258BB050
:100B3400C3F3080385F31188BFF36F8F02F07F407E
:100B4400B0F17F4F11D102F00C0008280DD010072E
:100B54004CBF0C4601250022033B8DF80720032BD4
:100B640005D8DFE803F02462665F2C46F3E7002330
:100B74009DF80720CAB902AE04F120073246206866
:100B84006168083403C2BC421646F7D1099A002DA5
:100B940053D0C2F3080121B96FEA52226FEA42220C
:100BA4000992184602A904F0F7F80BB0F0BD254BE2
:100BB400DA6A9107DBD4DA6A002AD8DBDA6A5200EF
:100BC400D5D55A69A16942F480725A61BFF34F8F37
:100BD400BFF36F8F5A6931F8021C22F480725A6194
:100BE400BFF34F8FBFF36F8F4DF60272914209D05E
:100BF4009A6AD2B242B101200DF10701FFF756FF04
:100C04000346B5E72368B3E79A6A12F47F4F05D029
:100C140001200DF10701FFF713FFF1E79B6AB3F51C
:100C2400803FA4D3FFF7DEFEEAE700200DF10701C1
:100C3400E4E700200DF10701EDE722F4FF7222F052
:100C44000102ADE700ED00E0044B5A6942F01002E6
:100C54005A615A6942F480625A61704700ED00E0BB
:100C6400EFF30880EFF3098101B57246FFF75AFFED
:100C740001BD00BF002080F31488BFF36F8F0020F4
:100C840080F30A8880F30B8801F0BEFD00200E4932
:100C94000860BFF34F8F0D4880F3088800F02CF8EC
:100CA400202080F311880A484FF40061401880F333
:100CB4000988EFF314800221084380F31488BFF3FA
:100CC4006F8F00F0EFF8000094ED00E0401A002070
:100CD400000D0020002318460649D1F89020C2F3E5
:100CE4000722934200DB7047C1F89830C1F8A00096
:100CF4000133F6E700ED00E010B572B6002484F38A
:100D04001388FFF7E7FF23464FF0FF300C4A03F147
:100D140020010133102B42F82100F8D100234FF0B9
:100D2400FF30074A03F160010133102B42F8210020
:100D3400F8D162B6BFF34F8FBFF36F8F10BD00BF02
:100D440000E100E0084B9B6883420BD1EFF305837D
:100D540043B1064B5A6842F080525A605A6A22F4F0
:100D640000425A6204F05CBECC0A002000ED00E0B0
:100D74006FF00A01084A93689967084958674B68F5
:100D840043F080534B60002383F31188BFF36F8FCC
:100D94009368986F704700BFCC0A002000ED00E014
:100DA400EFF31183202383F31288BFF36F8F4FF087
:100DB4000061084A53699360074A5160196F074AF2
:100DC400116000215A6F596782F31188BFF36F8F46
:100DD400704700BFCC0A002000ED00E01C0A002090
:100DE4000E498A684FF030001044EFF3098C80E814
:100DF400F01F74467046FFF7D3FFA64607498A687A
:100E040002F1300090E8F01F8CF3098802F1000031
:100E140004B503F0D6FFBDE804407047CC0A0020B7
:100E24001EF0040F0CBFEFF30880EFF30980816913
:100E340011F8021C0229FFD001B503F0B3FF01BD74
:100E440040B2002807DB01234109034A00F01F00D8
:100E5400834042F82130704700E100E0054B42092D
:100E640053F82220012300F01F0003FA00F0104081
:100E7400704700BF00E100E040B2002801F1010129
:100E8400ACBF00F16040064B4FEA4111C9B2ABBFA1
:100E940000F5614000F00F0080F80013195470470A
:100EA40014ED00E00B4A08B50B4B22F07F029A6068
:100EB400BFF34F8FBFF36F8FD3F8882022F47002F3
:100EC400C3F8882002F044FA02F098FF00F04AF8D0
:100ED40002F07EFA0000000000ED00E042F8203C41
:100EE400009B0B4942F81C3C019B21F0010142F894
:100EF400183C029B42F8081C42F8143C4FF08073E3
:100F040042F8043C0023203A02654367704700BF5F
:100F1400390500000C4B15469860026F0B4B0E46CA
:100F24001A60036E83F30B882C4686F309884FF00E
:100F34000000074B984720464FF000014FF0000295
:100F44004FF00003034C2047CC0A00201C0A002069
:100F5400CF4D0000390500001022014B1A61704783
:100F640000ED00E0002320210348C2180133412B87
:100F740082F80013F9D1704700E100E008B5EFF3FF
:100F84000583064A103B02EBC30152F8330049685B
:100F94008847BDE80840FFF711BD00BFA85C00000A
:100FA4001FB5094C094A23460121094800F0FAF803
:100FB40000230393074B0121E41A01A8019302942F
:100FC40000F0FAF804B010BD006001200000002019
:100FD400E45E00004003002010B50C7A0B6804F0B6
:100FE4001F0223F01F031A43CB68640923F01F0375
:100FF400054943EA440343F00103C1F89800C1F8EA
:101004009C20C1F8A03010BD00ED00E010B5074BE6
:10101400D3F89030C3F30723013B984202D8FFF77B
:10102400DBFF10BD6FF01500FBE700BF00ED00E033
:101034002DE9F04F0F46144606464FF000084D4D7B
:1010440085B0B84580F29280D6F80490B9F1000FCB
:1010540036D0B9F11F0F40F2878019F01F0F40F00E
:101064008380D6F800A01AF01F0F7DD1504603F0FC
:10107400CFFE834609EB0A00013803F0C9FE83451D
:1010840072D11BF1160F6FD05C456DDDC5F898B0B9
:10109400D5F89C10C5F898B0D5F8A03021F01F0100
:1010A40043F01F0AD6E900321A44994202F1FF398B
:1010B4001ED1CA4508D131465FFA8BF003F0B1FE68
:1010C40008F101080C36BCE73146C5F898B0D5F8EC
:1010D4009C3022F01F0203F01F031343C5F89C3019
:1010E400E0B203F09EFE10F1160F3DD0441CE7E77A
:1010F400C5F898B0D5F8A020013B23F01F0302F0F7
:101104001F021343CA453146E0B2C5F8A030E8D007
:1011140003F087FE10F1160F26D0C5F898B0D5F865
:101124009C209DF808300AF1FF3A62F304038DF81D
:101134000830D5F8A0309DF808205B0863F3471207
:101144008DF80820D6E900321344009323F01F03DE
:101154005344A3EB0903013023F01F036946C0B2D3
:101164000393FFF753FFBEE76FF01504204605B065
:10117400BDE8F08F00ED00E00522044BC3F8942095
:10118400BFF34F8FBFF36F8F704700BF00ED00E0D8
:10119400BFF35F8F0022024BC3F89420704700BF57
:1011A40000ED00E010B5034C2278FFF741FF2070FA
:1011B40010BD00BFE80C00202DE9F74F294D8A46E9
:1011C40006464FF00008AB46274FD0451BDAD6F849
:1011D4000490B9F1000F3FD031680846019103F043
:1011E40017FE0199044609EB0100013803F010FED3
:1011F40084424FF014021D4B08D002FB08F36FF039
:1012040015024BF8032003B0BDE8F08F14F1160F5C
:101214002C60F8D01978A142F5DD02FB08B0C7F8BC
:101224009840C7F89840D7F89C4000F10801007B2B
:1012340064F304000871D7F8A0000C79400860F347
:1012440047140C71D7F89C1021F01F016960D7F87E
:10125400A01021F01F01296108F1010814350C3692
:10126400B3E700BF200A002000ED00E0E80C0020F6
:10127400F0B54149414CD1F890302568C3F30723B8
:101284009D4287B075D80020FFF782FF3C4BC1F820
:10129400C030854216D13B4C01A82570FFF772FA85
:1012A40000250646384FAE4213D100202378324938
:1012B400D1F89020C2F30722934254DBFFF75CFF7E
:1012C40000202FE0616801EB0011FFF785FE01307B
:1012D400DFE70199280101EB0513DA683A40B2F51A
:1012E400001F21D0B2F5800F2BD0B2F5801F38D16A
:1012F4005A689B680958013B22F01F0003440120EF
:10130400844623F01F0340EA4C10CDE902218DF8F6
:10131400100002A920780593FFF778FE00281DDA53
:101324006FF0150007B0F0BD5A689B680958013B7F
:1013340022F01F0003444FF0020C012023F01F038E
:10134400E1E75A689B680958013B22F01F000344F7
:101354004FF0000C062023F01F03D4E72378013359
:10136400237001359FE7C1F89830C1F8A00001331C
:101374009EE74FF0FF30D5E700ED00E0F05E00009F
:10138400AAFF4400E80C00200000F0FF08B5024B5F
:101394001B689847002008BD340A0020034B044A08
:1013A4001860937843F0020393707047340A002066
:1013B400C801002008B50649064821F00701C1F11B
:1013C400005202F5B03203F0C2FB002008BD00BF9A
:1013D400471A0020380A00200122024B0020C3F8DB
:1013E400402570470090035020B1034B800143F027
:1013F40001031847704700BFB05E0000084B70B58A
:10140400C31A0D4607499B10044659434022064817
:1014140003F02EFD2B4601462046BDE870401847D8
:10142400580A0020B76DDBB6585C0000402373B542
:101434000B4C0093041B0B460D460A49A410614350
:101444000646094A094803F03FFD011E05DA304605
:101454002B4602B0BDE87040184702B070BD00BF13
:10146400580A0020B76DDBB6374F0000585C000007
:1014740010B5EFF31184202383F31288BFF36F8F29
:10148400074A136823F00201DB07116002D401202C
:1014940004F0FCF884F31188BFF36F8F10BD00BF14
:1014A400A80A002070B50022012104460520FFF798
:1014B400E3FC0F4801F0A0FA0E4B984215D101F05D
:1014C400ABFA26690C49304603F0DCFB00280BDB41
:1014D400012535642469084904F11C0003F0D2FB9A
:1014E400002801DB0020E56470BD6FF00400FBE719
:1014F400F91500000000AD0B185F00001FB50022B5
:101504000123CDE902236B46084ACDF800D0CDF87B
:1015140004D003F007FD002805DB4FF480420023CC
:10152400684602F0DBF805B05DF804FB554F000097
:101534000C22104B014602FB0033002030B4D3E9E7
:101544000E529863EFF31180202484F31288BFF3C2
:101554006F8F1C6C04F0C00444F002041C6480F31C
:101564001188BFF36F8F1DB12B4630BC024818475A
:1015740030BC7047580A0020585C000010B4EFF3E8
:101584001182202383F31288BFF36F8F17480168F9
:1015940041F002040460C80707D482F31188BFF342
:1015A4006F8F012010BC01F04BBA4FF05021D1F8DD
:1015B4000C04D1F80C14C907EFD5EFF3118083F3B1
:1015C4001288BFF36F8F0A490B6C03F0C00343F01A
:1015D40002030B6480F31188BFF36F8F82F31188C9
:1015E400BFF36F8F002010BCFFF7A2BFA80A002032
:1015F400580A002010B1012804D07047034B1B6C1B
:101604005B0701D1FFF794BF704700BF580A002061
:101614002DE9F041012207463649D1E8EF3FC1E800
:10162400E02F0028F9D133B9334934484B60CB60FB
:101634008A6003F03AFB7B1E012B2BD8012F07D1C4
:101644004FF05023D3F81C3403F00303022B21D0B2
:1016540004F014F90546F8B9294B1B78E3B14FF0AF
:10166400502302220646C3F808234FF05024DFF823
:101674009480D4F81824D4F81834D20315D503F080
:101684000303022B01D0012F0FD16DB386F3118810
:10169400BFF36F8FBDE8F081EFF31186202383F34E
:1016A4001288BFF36F8F0125DFE7C5B1304603F021
:1016B400A0FBD4F81835DBB2012BDAD1D4F804211D
:1016C400002AD6D00022C4F80421D4F8042102222E
:1016D400C4F818252022C8F88021A360C9E7002196
:1016E400212002F0E1FAE4E74FF050230222C3F88C
:1016F4000423CFE7540A0020440A0020740A00207F
:10170400FD0C002000E100E008B5074804F021F8D2
:1017140038B10648FFF742FE0448FEF705FF0020F3
:1017240008BD6FF01200FBE7945C00003517000061
:101734000A2838B50446074D04D1AB680D21284664
:10174400DB699847AB680348DB69E1B298472046F8
:1017540038BD00BF945C000038B545682B69B3B14F
:101764001035284601F058FC044680B90146284645
:1017740001F020FC084B98420BD122462846074929
:1017840001F000FC224605210D20FFF775FB002027
:1017940038BD6FF00400FBE70000AD0BA517000097
:1017A400430970B507D10B4B596821B101250C6869
:1017B400094E854001B970BD8A682A4002D030467E
:1017C4004B6898471CB1236821461C46F2E7234620
:1017D400FAE700BFAC0A00206C5C00002DE9F0437E
:1017E40040F206354668D00648BF0320337B02EA40
:1017F400050558BFC2F3401087B001F01F07B5F5C7
:10180400837F144647EA43178DF8030041D00FD86D
:10181400062D18D007D8B5B1022D3CD06FF01500B5
:1018240007B0BDE8F083B5F5807FF7D101250AE064
:1018340040F20222954230D0B5F5407F2FD0B5F565
:10184400007FEBD1022522032BD5012372688B4044
:101854009360326962BB07F01F037F0975D13D4A6B
:1018640084F4803102EB8302D2F80032C1F30041E8
:10187400C4F3404423F4E16344EA410423F007033E
:101884001C4344EA800444EA0524C2F800420020D0
:10189400C6E70725D7E70425D5E70525D3E70325BC
:1018A400D1E7630341BF012372688B40D360D0E763
:1018B4001036394630460DF1020201F069FB14F48A
:1018C400403F80460CD13946304603F039FF224B65
:1018D4009845DCD130469DF8021001F0A7FBD6E70D
:1018E4004FF0000901AB3946304603AACDE904396B
:1018F400CDE90199CDF80C9001F01EFA164B9842EF
:101904008CD114F4003315D09DF8033084F4803462
:10191400C4F300448DF80E3039464B46304603AAD2
:101924008DF80C508DF80D4001F0B4FA0A4B984232
:10193400CDD073E7CDE9043339460DF103033046C6
:1019440003AA039301F0F8F9F0E7803352F8233047
:10195400FFDE00BF002584500000AD0BF0B54068E9
:1019640001F01F04057B87B044EA45140569002D86
:101974005FD0B2F5001F00F1100506D121462846BC
:1019840003F0E0FE002007B0F0BD0027B2F5800FA1
:1019940001AE0197776037D1B3F1007F14BF0523FF
:1019A40004238DF804300023CDE904630393836892
:1019B40023FA01F111F0010118D1B2F1A07F15D180
:1019C40004F01F03620903F1800338D11D4A52F861
:1019D4002330DB070AD40DF103063246214628469C
:1019E40001F0D6FA184B984219D00296214628469F
:1019F40003AA01F0A1F9154B98421DD101222146F9
:101A0400284601F01FFBBDE7B3F1C06F05D0B3F169
:101A1400007F14BF01230223C3E70323C1E7314638
:101A2400284601F009FB094B9842DED06FF00B0009
:101A3400A9E76FF08500A6E76FF01500A3E751F85A
:101A44002330FFDE002584500400AD0B0000AD0BF5
:101A54002DE9F04740F2FF16594FDFF868C1DFF86F
:101A640068E100EB8101814202D10020BDE8F087EA
:101A7400046814F4804FC4F3C325C4F3080340F08E
:101A84008C80640CB34208BF4FF0FF337D5D192C8A
:101A940000F28680DFE804F00D13191C1F251C8456
:101AA4008484843660848484848484848484637891
:101AB4007B7EC2F80C355C1C5BD10430D3E7C2F8E2
:101AC40014355C1CF9D000245CE0C2F80835F2E758
:101AD400C2F81035F5E75C1CC2F80835EDD00024D7
:101AE40004E05C1CC2F80C35E7D001245FEA53180B
:101AF40059D14FF00109DFF8CC8009FA03FAC8F88C
:101B04000CA008E0C2F80835002DDAD15C1CD4D052
:101B140000240625A146D0F800A00AF40048B8F134
:101B2400000F1CBF4FF00009012403F01F085B09DC
:101B34003FD10CEB8808D8F80032CAF3412A03EAF3
:101B44000E0343EA8A0343EA052343EA090343EA0B
:101B54004403C8F80032B0E7C2F80C35D4E7C2F841
:101B64006035B3F1FF3F0468A7D0C4F30044002CF0
:101B7400BBD05C091AD10124DFF8488004FA03F9C8
:101B8400C8F80890A146C6E7C2F86435E9E7C2F888
:101B94006835E6E7C2F86C35E3E76FF0150065E7F2
:101BA4006FF0850062E70023DB60FFDE00239B60AB
:101BB400FBE7002308F1800853F82830F5E700BF5D
:101BC4002162000000258450F0F8FCFFF7B51D46A3
:101BD400436806460469D3F800C0EFF31187202355
:101BE40083F31288BFF36F8FE368D86838B187F343
:101BF4001188BFF36F8F6FF00F0003B0F0BDDA6090
:101C0400E36899604FF48003CCF8043301F0604337
:101C1400B3F1005FE36811D11961E3685A612146A9
:101C2400304603F067FB87F31188BFF36F8FE37AC5
:101C3400012B01D16B1C06D10020DEE7D8612046C0
:101C440003F0D2FAEBE74FF4004600210A4825EAF4
:101C5400E5750023C5FB0601084AFEF771FAE4683E
:101C640002460B46203400200021CDE90001204625
:101C740002F08EFAE0E700BF3F420F0040420F003F
:101C84002DE9F7434FF000084668056934680746B4
:101C9400C4F800852860D6F80C904146484601AA4D
:101CA40003F0A6F9002839DB019BD9F80020197943
:101CB4001868FFF7CDFE002830DB6B7AD7F810C028
:101CC400012B03D0032B27D14FF01008AB7A032B41
:101CD40022D1E97A09B101291ED12A7A12B1022A44
:101CE4001AD10E226B687868B3F5164F006800F0BD
:101CF400E88034D8B3F5165F00F0E6801AD8B3F55F
:101D0400966F00F0E3800CD8B3F5967F00F0E18085
:101D1400B3F5167F00F0E0806FF0850003B0BDE8F6
:101D2400F083B3F5166F00F0DA80B3F5965FF3D164
:101D3400804B45E0B3F5E14F00F0D48008D8B3F50B
:101D4400615F00F0D180B3F5964FE5D17A4B37E06F
:101D540047F6122E7345DFD14FF4000330E0B3F59C
:101D6400613F00F0C38015D8B3F5963F00F0C18001
:101D74000AD84DF6C02E734500F0BD80B3F5614F0F
:101D8400CAD14FF46B031BE0B3F5E13FC4D14FF06C
:101D9400EB7315E0B3F5612F00F0B0800AD8DFF8DB
:101DA4009CE1734500F0AD80B3F5E12FB4D14FF061
:101DB400E86305E0DFF888E17345ADD14FF0805367
:101DC400C0F824357B6841EA08011B680A43C3F85C
:101DD4006C250CF10403D5E9010183E80300736861
:101DE400990713D505F11C0000F0B4FE554B984239
:101DF40040F09C80287F04F10C0204F5907103F0FC
:101E0400E5FB01202B7F984000F0F0FDEB68002BF0
:101E14007AD004227B68D7F810801B68C3F80423A7
:101E24000122D8F80C10C1F8C0204749C3F80413A4
:101E34000821C3F80015D3F84C11A1B15A60D3F8A6
:101E440044211AB9D3F82421002AF8D00022C3F877
:101E54004C21D3F84C11C3F81021D3F81011C3F856
:101E64004421D3F84431D8F80C000022374980309B
:101E740003F013FED8F80C30C3F8B480D8F80C0083
:101E840000223349203003F008FED8F80C30C3F8A0
:101E94005480736800209A075CBF4FF48073C4F8C1
:101EA40004337368DB0644BF4FF48003C4F804337F
:101EB4006B69C4F844350123C4F84805A360E360A2
:101EC4002CE74FF41D037BE7224B79E74FF49E2365
:101ED40076E74FF4A03373E74FF41C3370E74FF405
:101EE4001D236DE71C4B6BE71C4B69E74FF06C73CC
:101EF40066E71B4B64E74FF4650361E74FF07063DB
:101F04005EE74FF080635BE70823C4F80035337A5B
:101F1400002BBED1C4F81031D4F81031AB69C4F829
:101F240034350123C4F838352360B2E76FF0040078
:101F3400F4E600BF00B0130000A04E0090D00300F0
:101F440040420F000000AD0B10020A007F54000055
:101F5400535500000050270000C0750000F03A00FF
:101F640000903A012DE9F04104460F46066903F05A
:101F740085FC4FF02008A8B9264B1B7893B1642543
:101F8400606803F0A7F998BB012003F01DFB013D35
:101F9400F6D10021212001F087FEF0E785F31188B6
:101FA400BFF36F8FEFF3118588F31288BFF36F8F40
:101FB4006168084603F08EF90028EFD0F36853B146
:101FC400DA6842B1D3F8BC20002A04DA0A68D2F8ED
:101FD4004C25C3F8BC20736901221F702046716927
:101FE40003F020F885F31188BFF36F8FBDE8F0810B
:101FF400EFF311810D4688F31288BFF36F8F606889
:1020040003F068F90028E6D181F31188BFF36F8FDC
:10201400BFE700BFFD0C00202DE9F04143680446F2
:102024001D6888B0D5F80811036969B10022C5F8A4
:102034000821D5F80821DA68D2F8B8300133C2F89B
:10204400B83008B0BDE8F081D5F8243123B3C5F821
:102054002411D5F82431436814221B6803A8D3F84B
:102064008064C3F8806403F0AFFD0623F2078DF8A3
:102074000C3000F10981B30700F10881770700F102
:10208400078106F00806204603A98DF8106002F0C7
:10209400F1FF204603F083F8D5F81031002B33D03C
:1020A400D5F80433D8062FD54FF000080122C5F81F
:1020B40010812669D5F8103163681F68F36883F8C6
:1020C400CE20F068803003F0F4FCF268D7F83C15B9
:1020D40092F8C93082F8C980F268106E1B1A0B445A
:1020E400106F23EAE37108444345106702DD20467C
:1020F40002F0C7FFF16891F8CA3003F0FF02002B29
:1021040040F0C88081F8CE20D5F84C3183B3D5F89F
:1021140010616EBB1422C5F84C61314603A8D5F892
:102124004C31276903F050FD032303A920468DF8A1
:102134000C3002F09FFFFB685A6F511C18D0DA670D
:10214400FF688D49B86F8E4620EAE07C31464FF433
:102154000040CCFB00E100237046884AFDF7F0FF05
:1021640002460B46CDE9000107F1800002F010F8A9
:10217400D5F8443163B3D5F810614EBBC5F844615A
:1021840027692046F968D5F844315831D4F80480D9
:1021940002F090FFF9682046643102F08BFFFB687F
:1021A40083F8CA60FB6893F8CB2032B183F8CB6024
:1021B40032463146606803F02FF8D8F80430D80668
:1021C40003D50221204603F05CF8204602F08AFF82
:1021D400D5F82031D3B1D5F80433D90516D56368C1
:1021E4001B68EFF31182202181F31288BFF36F8FF4
:1021F400D3F8201131B10021C3F82011D3F82011F4
:102204000121D96082F31188BFF36F8FD5F858315B
:10221400002B3FF416AFD5F804335A027FF511AF03
:1022240063682569D3E90073DB0663D4EB689B68B4
:10223400002B3FF406AFEFF31182202383F31288BF
:10224400BFF36F8FEB68D3F8BC100029ACBFD3F891
:10225400BC60D7F84C6582F31188BFF36F8FEB68CD
:1022640093F8CD20002A52D0EFF31186202383F374
:102274001288BFF36F8F2946204603F03BF886F39C
:102284001188BFF36F8FDCE60126FCE60226FAE62E
:102294000426F8E62046583102F00CFFEFF31181D2
:1022A400202383F31288BFF36F8FF3685A6EF2B161
:1022B4009A65F3689A6EDA650023F2685366F268E9
:1022C4009366F2681366D7F84C310BB901233B606F
:1022D400D7F8003223F02003C7F8003281F31188C5
:1022E400BFF36F8F0022F36883F8CE200CE701233D
:1022F4007B60F3E74FF480030121C7F808332046DD
:1023040002F0BFFFEB68DB68002B8FD199E6996878
:102314001A6991420CD05969DA69B142324428D120
:102324002846DA6102F060FF00289DD1EB68DE697F
:10233400E868203003F0BDFB1422002103A803F059
:1023440043FCEB6820469A6803A9CDE90426DB68C0
:102354009E421CBF01238DF80C304FF48003C7F854
:1023640008330023EA689360EA68D36002F082FECF
:1023740067E61646DCE700BF3F420F0040420F000D
:102384000123834070B5DC430B4AD2E8EF1F01EA16
:102394000405C2E8E65F002EF7D14FF48032824094
:1023A4000648C0F80823BFF35F8FBFF36F8F0B425B
:1023B40014BF0120002070BDBC0A00200050015051
:1023C40070B40E4922F07F46D1E90034D01AC31804
:1023D40044F10004C1E90034A6F50013B3F5400F3D
:1023E40009D2074B1B681A0A1B069C19054B42F1BC
:1023F4000005C3E9004570BC01F0DABD50030020BC
:10240400C00A002058030020D9B101230D4A83409B
:10241400D2E8EFCF4CEA030CC2E8E1CF0029F7D1B0
:102424004FF48033084A8340C2F80433074BD3E89F
:10243400AF3FC340DB0742BF4FF40012044BC3F865
:1024440000217047BC0A002000500150B80A002047
:1024540000E100E00D4B1868010A0006BFF35F8F2E
:102464000B4BD3F80435181841F10001B3F5801F64
:102474000AD2084BD3E90023904271EB030303D241
:1024840010F1807041F10001704700BFC00A0020C4
:1024940000500150580300202DE9F04F85B0164636
:1024A4001F4604469DF840A0FFF76AFF0190FFF71E
:1024B400D1FFB04271EB070352D23B4B301A67EBAA
:1024C4000101984271F100014DD2384B03EB041322
:1024D400D3E902239F4208BF964258D04FF4803874
:1024E400334908FA04F8204626F07F4BC1F84883A4
:1024F40003F031F84FF00309584604F15005AD00DC
:10250400ADB205F1502504F5A87305F580350293A5
:10251400029A20F07F4341F82230C1F84483D1F875
:102524000435244AC01A033820F07F4090422ED943
:10253400286868B1D1F80435A3EB0B0020F07F4084
:10254400B0F5000F039322D9204603F004F8039B4F
:10255400BAF1000F07D109EB030009F10109D7E72C
:10256400BAF1000F09D06FF0150520460199FFF765
:102574004BFF284605B0BDE8F08F01230E4AA34067
:10258400D2E8EF0F1843C2E8E10F0029F8D1074958
:102594000E982301C8500F9B01EB04120025C2E9D9
:1025A40002675360E1E700BF0100800040030020A0
:1025B40000500150FDFF7F00B80A00207FB50025C0
:1025C4004FF0FF304FF0FF31194C1A4B0226C4F87C
:1025D4000833C4F84833184BC4F80855C3E902015A
:1025E4004FF480334FF40012C4F80433134B012129
:1025F400C4F804631520C3F880212A46FEF73CFC86
:102604001520FEF71DFC01230D4AA360236013600F
:102614000C4B0D4A009328460023CDE90155FFF7E2
:102624003BFF3046FEF7F4FF284604B070BD00BF00
:102634000050015003000F004003002000E100E0BF
:10264400BC0A0020C5230000FFFF7F002DE9F743EB
:102654002E4BD3F8042390070BD5D3F8042142B1B1
:102664000022C3F804212A4AD3F804311368013341
:102674001360264AD2F80433D90326D5254BD3E870
:10268400EF1F21F00100C3E8E40F002CF7D1CB07C2
:1026940002D4D2F84031C3B100251C4CC4F84051D7
:1026A400D4F84031FFF7D6FEEFF31182202383F3F1
:1026B4001288BFF36F8F184BD3E90267B042B94158
:1026C40006D282F31188BFF36F8F03B0BDE8F083A5
:1026D4004FF0FF38D3E900104FF0FF391D60C3E914
:1026E40002894FF48033C4F84833C4F84051D4F815
:1026F400403182F31188BFF36F8F0029E5D0009039
:1027040032463B4628468847DFE700BF0050015069
:10271400C00A0020B80A00204003002030B5431C42
:10272400124C85B005D08442A8BF0446012CB8BF22
:102734000124FFF78FFE0E4B0C4DD3E90013401A12
:10274400B0F5000F0FD22218AA4228BF2A46002053
:1027540052180849CDE90100009143F10003FFF745
:102764009BFE05B030BD2A46F1E700BFFFFF7F00A6
:1027740050030020C523000008B5FFF76BFE024B91
:102784001B68C01A08BD00BF5003002008B5EFF352
:102794001083012B0C4A07D1126ABFF34F8F511CCF
:1027A4004A424A41104608BD02F0ECFE00B172B63E
:1027B400126ABFF34F8F531C5A425A4102F0E2FE91
:1027C4000028EFD062B6EDE70080FF0008B5EFF314
:1027D4001083012B0B4A06D1D269BFF34F8F02F04D
:1027E4000102104608BD02F0CDFE00B172B6D269F6
:1027F400BFF34F8F02F0010202F0C4FE0028F0D0B4
:1028040062B6EEE70080FF0010B502F0BBFE30B107
:102814004FF050230022C3F81421C3F8182102F00A
:10282400C0FE28B101224D4BC3F8382AC3F87825DD
:102834004FF47F02D2F83031D2F83421BFF34F8FF6
:10284400C3F30B03092B05D1012A1EBF0122434BFD
:10285400C3F8782502F0A5FE18B10E22404BC3F848
:10286400E42E02F08FFE30B100223C4BC3F80C275B
:102874000122C3F810270022D30003F57F03D3F805
:102884000013BFF34F8F013108D0D3F80013013286
:10289400D3F80433B2F5807F0B60EDD1EFF31084ED
:1028A400FFF794FF00284DD0BFF34F8F2D4BD3F883
:1028B4000024012AFBD1C3F80425D3F80024012AFB
:1028C400FBD1012C03D002F05DFE00B172B6FFF71C
:1028D4007DFF58B1244AD36923F00103D361BFF3C8
:1028E4004F8F204AD2F80034012BFBD1FFF74EFF63
:1028F40068B11D4A136A23F0FF0343F020031362F7
:10290400BFF34F8F174AD2F80034012BFBD1012CAF
:1029140003D002F037FE00B162B60022114BC3F8B7
:102924000425D3F80024012AFBD1BFF34F8F0F49AC
:102934000F4BCA6802F4E0621343CB60BFF34F8FBE
:1029440000BFFDE7FFF722FF0028ADD1074AD2F808
:102954008C3043F44063C2F88C3010BD004000500A
:1029640000A00350009003500080FF0000ED00E041
:102974000400FA0530B50468ACB1B4FA84F301225A
:10298400C3F11F03DBB29A4024EA0202D0E8EF5FEE
:10299400A54204D1C0E8EC2FBCF1000FF6D1EAD176
:1029A40002480B7030BD0248FCE700BF0000AD0BCD
:1029B4000200AD0B10B50368CB40DB0710D4012334
:1029C4008B40026843EA0201D0E8EF4F944204D1FD
:1029D400C0E8EC1FBCF1000FF6D1F2D1014810BDE4
:1029E4000148FCE70000AD0B0400AD0B014BC3F83C
:1029F4000405704700700150044B1A7922B9012272
:102A040018601A710248704702487047C40A0020CF
:102A14000000AD0B0C00AD0B08B5084B1B6833B1BF
:102A24000520FEF71BFA10B90520FEF709FA4FF04E
:102A340050230122C3F8182508BD00BFC40A002092
:102A440010B510B1012847D010BD4FF05023D3F872
:102A54001814D3F81824C90322D502F00303022B57
:102A640005D0012B02D0002002F0B7FD01234FF066
:102A740050220220C2F8183508224FF48273002134
:102A840003F1502319601C68012402F150221460E0
:102A9400164A126822B34FF05023C3F80403D3E755
:102AA400D3F81424D207E1D5D3F81C2402F003028E
:102AB400013A012AD7D80D4A12681AB10222C3F882
:102AC4000423C1E7D3F80421002AFBD00022C3F871
:102AD4000421D3F80431B7E700224FF48073CEE722
:102AE4001A68002AFCD019601B68ADE7C40A0020EC
:102AF4004FF0502310B5D3F8002152B10020C3F891
:102B04000001D3F800210122C3F80823104B1B68ED
:102B140098474FF05023D3F8042182B10022C3F820
:102B24000421D3F80421D3F81824D3F8182402215B
:102B340002F00302012A03D1C3F818159A6010BDEC
:102B4400C3F80813024B0120BDE810401B68184766
:102B5400C40A002001460148FFF70CBF18020020F8
:102B6400036803F01F025B090260024818BF0020DB
:102B7400704700BF0025845070B50D4C00F1080368
:102B840034F813300546DA050E4607D5C3F343235C
:102B940004EBC302526854F833309847A3682BB14E
:102BA40031462846E268BDE87040184770BD00BF52
:102BB4001C020020024611F0010004D003490B6AF4
:102BC40013600B6203B90020704700BF00258450D6
:102BD40010B4124AC0B2083032F81030D9051BD5EF
:102BE400C3F3432123F4F85322F81030002002F1F8
:102BF4000E0434F8023F13F4807F03D0C3F343235D
:102C0400994209D001302028F3D1002342F8313011
:102C1400034810BCFFF7CEBE10BC70471C02002056
:102C240074020020F0B5054600200126044607463C
:102C34008C420BD1114BD3F87C2132B10022C3F862
:102C44007C21D3F87C3140F00040F0BDE3B29B001E
:102C540003F580729B0806FA03F31D420BD002F1C0
:102C6400A04202F55042D2F800C0BCF1000F02D0DD
:102C74001760126818430134DAE700BF00D000502F
:102C8400CBB2024608460D49083331F81330990691
:102C940011D599070FD4012110685B0B9940C0F836
:102CA4000813126802EB8303D3F8102522F0030201
:102CB400C3F810257047002102F033BD1C02002028
:102CC400F7B5194ECDB2083536F815300746DB078F
:102CD4000C4626D5FFF7D4FF36F815309A0608D5EA
:102CE4005A0B3B6803EB82030022C3F81025C3F898
:102CF40010252046FFF76CFF002301A826F81530A5
:102D04000194FFF72DFF019B00EB8300D0F8002214
:102D1400064B134043F00203C0F80032044803B0EA
:102D2400F0BD0448FBE700BF1C020020F0F8FCFFE4
:102D34000000AD0B0400AD0B2DE9FF4113680746FD
:102D44000C461646FBB1DFF83C81CDB2083538F8A5
:102D5400152002F02202222A22D000222046CDE9A8
:102D640000228DF80E208DF80F200DF10E010DF1CB
:102D74000F0202F08DFC38F8153023F0020343F003
:102D8400010328F8153073684BB31A785868DFF8D4
:102D9400F4C0E3B208333CF813108D0702D5B0B188
:102DA40039481FE021F02001C904C90C2CF8131084
:102DB40068B1032AF4D870683D68406890F800E070
:102DC40005EB8E058AB9C5F81025C5F810253CF821
:102DD400131021F01C0141EA82022CF81320B3687D
:102DE4002BBB2A4804B0BDE8F081D5F8108541EA30
:102DF4004E3128F00308C5F810853D6841F02001E4
:102E040005EB8E05D5F810052CF8131020F4473087
:102E140020F44070C5F810052002D5F8107500F4B0
:102E2400F85040EA02403843C5F81005CFE7204681
:102E3400D3E90067FFF7CCFE002ED2D0114DD5E9BF
:102E44000023964203D19F4201D1002209E0104899
:102E54000DF10F01FFF78EFD0C4B9842C2D19DF886
:102E64000F20E4B205EBC20308345F6035F8143078
:102E740045F8326043EA422343F4807325F8143062
:102E8400AFE700BF1C0200200400AD0B0000AD0B37
:102E9400740200202DE9FF4107460C461E4612B37A
:102EA400DFF8D480CDB2083538F81530980701D44E
:102EB400990621D413F01C0F02D05378012B1BD098
:102EC40001238DF80F3000232046CDE900230DF1B6
:102ED4000F01931C013202F0DBFB38F8153043F08C
:102EE400030328F81530002E44D0234DE1B20831F5
:102EF40035F81120930703D4204804B0BDE8F081CD
:102F0400002096F800E03B6822F02002D20403EB94
:102F14008E03D20CC3F8100525F81120C3F8100550
:102F240096F801C04FEA8E08BCF1000F22D0386831
:102F3400B6784044D0F810354FEA0C4C23F498137B
:102F440023F4F853C0F81035230203F4F8530CF4B7
:102F5400403C3605D0F8107543EA0C0306F480169D
:102F6400334342EA4E323B4342F02002C0F810356C
:102F740025F811200248C0E71C0200200400AD0B14
:102F84000000AD0B014BC3E9021270471C02002084
:102F9400054BC9B2083133F81130990643BF5B0BB6
:102FA40002481370024870471C0200200000AD0B59
:102FB4000400AD0B70B5154D064695F860401CBB7A
:102FC4002146402205F1100002F0FEFD2146306842
:102FD4002E6D8E420ED10023C0F87C31D0F87C31A6
:102FE40040F30730FDF72CFF0123094885F86030D2
:102FF400AB6570BDCBB29B0003F580727C2B04BF24
:10300400845083580131E4E70248F2E71C020020AF
:103014000000AD0B0C00AD0B034B93F860000038BF
:1030240018BF0120704700BF1C0200200148FFF7B1
:10303400C1BC00BF700200200148FFF79BBC00BF69
:103044007002002073B503680C46D3F804130029FA
:10305400A4BF4FF00041C3F804131E49E3B2083380
:1030640031F8133099061AD513F0020617D15B0B09
:1030740005689C0004F580716E506958016821440C
:10308400D1F8104544F00104C1F810452AB10122D9
:10309400016802FA03F3C1F8043302B070BDC3F34C
:1030A4008203042B11D0052B11D001A80194FFF742
:1030B40057FD019A0369D34003F00103991C20468C
:1030C40002B0BDE8704002F02CBB0321F7E70221F7
:1030D400F5E700BF1C0200202DE9F347534B544F82
:1030E400D3F80403396DC0B240F00040FFF79AFDF5
:1030F400051E18DA00236846F96D00934FF00108A5
:10310400FFF758FD97F85C30DA0757D4396D4FF064
:103114000040FFF787FD6846F96DFFF74BFD002877
:10312400F0D125F000450124002D66D102B0BDE8A0
:10313400F08794FAA4F4B4FA84F4E00804F10803E0
:1031440037F8139004F007021DF8003008FA02F271
:1031540023EA02030DF8003001A80194FFF700FDF3
:10316400019B4FEA9901803350F82360C9F3820A26
:103174004B07D146C6F3014624D520465146FFF7F6
:10318400FBFC01A80194FFF7EBFC019BF6B2803332
:1031940050F82330C3F301439E4207D10021204657
:1031A40002F0BFFA3146204602F0BBFA01A80194AE
:1031B400FFF7D6FC019B08FA03F30362009C002C82
:1031C400B7D1A3E7022E0CD10321204602F0A9FABD
:1031D4000AF00503012BE9D149462046FFF7CCFC50
:1031E400E4E70221204602F09CFABAF1030FF3D07F
:1031F400032EDBD1BAF1020FEDE795FAA5F3B3FA8A
:1032040083F304FA03F29B0003F1A04303F5504354
:10321400D3F81005D3F81015C0F30420C1F301410D
:1032240025EA0205FFF7A8FC7EE700BF00D00050A6
:103234001C02002038B5EFF31185202383F3128894
:10324400BFF36F8F064B9C6802F096FA85F31188E2
:10325400BFF36F8F2046BDE83840FDF773BD00BF54
:10326400CC0A002038B5094B53F82040013053F8FC
:103274002050A54200D838BD636823B1204602F02F
:103284007EFA0834F5E723689847FAE728600000D7
:10329400012270B5294B032086B01A70FFF7E2FFB4
:1032A400FDF776FA0420FFF7DDFF254C254D264671
:1032B400AE4204F1300410D300F038FC204C224E0E
:1032C400AC4226D300F046FCFDF7B8F81F4A137B46
:1032D40023F00103137306B070BD54F80C3C05933E
:1032E40054F8103C049354F8143C039354F8183CD9
:1032F400029354F81C3C019354F8203C009354E985
:103304000A2354E90C0100F00FFA54F8303C5E65CE
:10331400CDE7D4E90A23B3F1FF3F08BFB2F1FF3F81
:1033240005D052EA0301206803D102F0ADFA30342B
:10333400C6E73146183000F0C1FDF8E7FD0C002067
:10334400B05E0000B05E0000BB590000E003002046
:1033540008B50348034A0021121A02F028FA08BDEE
:1033640040030020000D00200023012270B586B028
:10337400CDE904230F220193CDE9023214234FF443
:10338400A0720E4D0E4E03FB00550E4906EBC016FF
:10339400044602FB00110C4B3046009500F0C4F9C2
:1033A400737B2C7423F004037373084B013403EB15
:1033B400C423EE606B6006B070BD00BFCC0A002071
:1033C40060030020001500204D580000000D00206F
:1033D400BFB50020FFF746FF2C4B03F5006282F3D4
:1033E400088883F30A880024E023294D294E85F8B0
:1033F4002230EC772C766C76AC7685F820406B6ABC
:10340400254F43F4E0236B6285F82340FDF71CFC51
:10341400FDF7A2FD4FF0FF33AB62EB62FDF728FF2F
:10342400FDF7BEFD40F201121C4B1D4D9A81B360A5
:10343400C3E91844DC6602F08BF90120FFF712FFA0
:103444000220FFF70FFF00F0A5FB164B75610593F3
:10345400012315494FF48062CDE9034328463B46D6
:10346400CDE90144009400F05FF906466A7B2846E2
:1034740022F004026A7302F043FA2046FFF774FF55
:103484003A4631462846FDF745FD00BF000D0020B1
:1034940000ED00E0CC0A002095320000600400201A
:1034A400E00300203D62000040160020002038B5F3
:1034B400054C064DAC4200D338BD204602F07BF9E2
:1034C4000028F9DB1C34F5E7F0020020F0020020AC
:1034D40073B50C46EFF31181202585F31288BFF3F1
:1034E4006F8FC5685DB125602B68C3608369013344
:1034F4008361002081F31188BFF36F8F11E052EADA
:10350400030603D16FF00B002560F3E7CDE9002338
:103514000246083000F056FA18B9034B9B685B6901
:10352400236002B070BD00BFCC0A00202DE9F34136
:10353400044617461E46EFF31188202383F31288AE
:10354400BFF36F8FC368334A7BB180689168884248
:1035540019D057EA060318D188F31188BFF36F8F87
:103564006FF00F0002B0BDE8F081916891F90E1080
:103574000133E36093682161A36088F31188BFF38A
:103584006F8F0020EEE72169F2E791F90E1090F9B0
:103594000E306FF07E029942A8BF19469142B8BF1F
:1035A40011468B422DDD02F05AF90546224641466A
:1035B400CDE90076184800F005FA0028E1D0EFF3D1
:1035C4001186202383F31288BFF36F8FA068D0B1D4
:1035D400236821699C420AD04BB193F90E30994279
:1035E400A8BF19466FF07E039942B8BF194602F08E
:1035F40036F940B13146084800F054FA6FF00A0039
:10360400B0E70025D2E7002DF4D186F31188BFF38B
:103614006F8FF3E7CC0A0020FE0C002038B58368D6
:10362400044663B3194A926893422BD1C368012BB1
:1036340003D9013BC360002038BDEFF3118520237B
:1036440083F31288BFF36F8F0169806802F007F972
:10365400204602F0CAF9A06058B190F90E20226108
:103664000022826702F04CF92946094800F01AFA50
:10367400E1E7E06085F31188BFF36F8FDBE76FF05C
:103684001500D9E74FF0FF30D6E700BFCC0A002081
:10369400FE0C002038B50446EFF31185202383F394
:1036A4001288BFF36F8F02F0A0F948B1002282673D
:1036B40002F026F92946BDE83840074800F0F2B97F
:1036C400D4E902329A4218BF0133A36085F311880A
:1036D400BFF36F8F38BD00BFFE0C002013B5EFF3AE
:1036E4001181202484F31288BFF36F8F846844B15E
:1036F400013C846081F31188BFF36F8F002002B016
:1037040010BD52EA030406D181F31188BFF36F8F11
:103714006FF00F00F3E7CDE900230246014800F003
:1037240051F9ECE7FE0C00202DE9F043984685B0F2
:1037340000F15803C0E91633109B002603730423D9
:10374400073222F0070543730F9B01EB05090F466F
:1037540083734946C0E906668660C6730446FDF76E
:103764000DF90E9B073020F00700A066C4E9187518
:1037740002930D9BA9EB000901930C9B4A4600930D
:10378400394643462046FDF7A9FB054B66659B6811
:1037940003B1DB6E4846E36605B0BDE8F08300BFC5
:1037A400CC0A002038B50D4D2B4653F8184F9C42D7
:1037B40000D004B9EC68AB6838B95A7BD20604D19E
:1037C400A26912B9DA897F2A05D89C4202D0204620
:1037D40000F0BCFA23466B6138BD00BFCC0A002060
:1037E40008B590F90D200146002A437B04DA03F062
:1037F4007F03437302F04AF8044B9868431A584213
:103804005841BDE80840FFF7CDBF00BFCC0A0020F7
:1038140070B490F90D30427B002B29DBD30627D1FD
:1038240083692BBB134962F07F0242730A4652F844
:10383400184F944218BF2346CC6923B9C0E9002429
:103844002060C8610CE090F90E5093F90E60B54207
:103854000AD0AE4208DD5A68C0E9003210605860F0
:10386400002070BCFFF79EBF9C42E7D01B68E4E7D2
:1038740070BC7047CC0A0020002A2DE9F0410E46A6
:103884000CBF10210821427B044611420FD141EAAA
:103894000203D20918D1437308291BD00120FFF772
:1038A40081FFBFF35F8F637B23F060036373264B59
:1038B4009B68A34241D1EFF30583002B3DD13046F1
:1038C400BDE8F041FDF754BA03F07F03437301F000
:1038D400DDFFE1E7A36813B1204601F0DFFF04F147
:1038E400180002F0BFF84FF0000804F15807A56D66
:1038F400BD4200D0A5B9144DAB689C42CED1EFF3C4
:103904000583002BCAD00120FFF74CFF40F20112BF
:103914000E4B9A810022AB60C3E91822DA66C0E735
:10392400284601F0BBFF05F1180002F09BF8284679
:10393400C5F87880FFF76CFFD9E786F31188BFF3E9
:103944006F8FBDE8F08100BFCC0A00206004002026
:1039540070B590F90D200146002A437B04DA03F088
:103964007F03437301F092FF154A4B7B104663F0CB
:103974007F034B7350F8183FD469834208BF002378
:1039840023B9C1E900042160D1610CE091F90E5022
:1039940093F90E60B5420ED0AE420CDD5868C1E911
:1039A4000030016059609068BDE87040431A584285
:1039B4005841FFF7F7BE9C42E3D01B68E0E700BF25
:1039C400CC0A0020F8B5124B0C46DDE90676114608
:1039D4009868104A1060EFF31182202282F3128853
:1039E400BFF36F8F9D68284601F062FFB6F1FF3F79
:1039F40008BFB7F1FF3F06D03A463346064905F102
:103A0400180000F05BFA2046BDE8F840FDF7B0B9B5
:103A1400CC0A0020EC0A0020BB590000F8B504468B
:103A2400EFF31186202383F31288BFF36F8F437B58
:103A340049B2DA0619D18569BDB903F07F0343732E
:103A440001F024FF437B164A63F07F03437313465C
:103A5400817353F8180F984218BF0546D0695DB9B1
:103A6400C4E900300460D46111E00020A17386F33E
:103A74001188BFF36F8FF8BD95F90E70B9420BD062
:103A84008F4209DD6B68C4E900531C606C6001203F
:103A9400FFF788FE0120EAE7A842E1D02D68DEE7BF
:103AA400CC0A002049B9EFF3058030B9054B5A69B7
:103AB4009B689A4201D0FDF75BB981F31188BFF38B
:103AC4006F8F7047CC0A002010B5EFF311842022C9
:103AD40082F31288BFF36F8F427B510704D484F3BF
:103AE4001188BFF36F8F10BD22F004024273FFF7F9
:103AF4008FFE2146BDE810400148FFF7D3BF00BF49
:103B0400FE0C0020034648B9EFF3058232B9064A99
:103B140051699268914201D0FDF72AB983F3118863
:103B2400BFF36F8F704700BFCC0A0020EFF3118101
:103B3400202383F31288BFF36F8F054B9A68D37BDE
:103B4400013BD37381F31188BFF36F8F704700BFBC
:103B5400CC0A002038B5EFF31185202484F31288B1
:103B6400BFF36F8F0A4B00209A68D37B0133D37362
:103B7400FFF718FE85F31188BFF36F8FEFF3118001
:103B840084F31288BFF36F8FBDE83840FFF7BABFE4
:103B9400CC0A0020024B03F11802C3E90622704745
:103BA400CC0A0020F8B5EFF31185202383F31288A3
:103BB400BFF36F8F19498868437B03F07F03437316
:103BC40001F064FE08468B685A7B62F07F025A73E8
:103BD40050F8182FCC69824208BF002222B9C3E9E9
:103BE40000042360CB610CE093F90E6092F90E702F
:103BF400BE420ED0B7420CDD5168C3E900210B6010
:103C040053600120FFF7CEFD2846BDE8F840FDF7DC
:103C1400AFB8A242E3D01268E0E700BFCC0A0020AC
:103C240050EA01032DE9F04105460E4603D1FFF7A2
:103C3400B9FF00202BE0831C71F1FF3329DB01F075
:103C440026FF2C18EFF31188202383F31288BFF387
:103C54006F8F124F124BB8681860FFF7C1FDB86838
:103C640010492A463346183000F028F9BA6840460D
:103C7400537B43F010035373FDF77AF801F007FF09
:103C8400201A63EB0303012873F10003D1DBBDE8C1
:103C9400F0816FF00104241AD4E700BFCC0A00209D
:103CA400EC0A0020BB590000B1F1FF3F08BFB0F19E
:103CB400FF3F08B506D10A4B986801F030FE4FF07B
:103CC400FF3008BDFFF7ACFF4FF47A7147F6FF737E
:103CD4000022C0FB0132D80B40EA4240F1E700BFAA
:103CE400CC0A0020014B9868704700BFCC0A002022
:103CF4000122044BC01A044BC0105843034B1A54FE
:103D0400704700BFE0040020ABAAAAAAFE0C002062
:103D1400C3897F2B12D80A4B1B6863B1094B90F9F6
:103D24000E201B689A4209DB437BDB0606D1064B57
:103D3400C31A18BF012303F0010070470023FAE7F8
:103D4400F40A0020F00A00206003002070B50E4B36
:103D54000E4C1E7C054606EB460304EBC3042046CA
:103D640001F080FE00220A4B28469A55FFF7D0FF47
:103D740048B1084B2046BDE870401A680649013A2C
:103D8400D31700F09BB870BDCC0A0020E0040020DB
:103D9400FE0C0020F40A0020F53C000038B5EFF3D7
:103DA4001185202383F31288BFF36F8F104B114AC0
:103DB4009C681068A04206D1FFF7C8FF85F31188FC
:103DC400BFF36F8F38BD00211B7C11600A4AD35C9E
:103DD400002BF3D02046FFF79BFF0028EED0637B37
:103DE400DB0602D12046FFF7B3FD2046E4E700BF1F
:103DF400CC0A0020EC0A0020FE0C002008B506487E
:103E0400064A0749121A01F0D4FCBDE80840054AE5
:103E14000549064801F0CDBC000000204003002005
:103E24005462000000000000546200000000002002
:103E3400034B1B680BB9FEF79FBC0020704700BF03
:103E4400F80A002030B570B10B4B5B6898420AD079
:103E5400036843B1D3E90421D0E90445121941EBC5
:103E64000501C3E90421D0E9003213605A6000233C
:103E7400C0E9003330BD00BF8002002010B50E4BF6
:103E84001C689C4204D1FFF7D3FF6FF0004010BDC3
:103E9400FFF7CEFF002CF8D0D4E904321B1A62EBF2
:103EA400E072B3F1004F72F10001EEDA002AACBF08
:103EB40018460020EBE700BF80020020B3F1FF3F6B
:103EC40008BFB2F1FF3FF8B504461D4616465ED062
:103ED4008160EFF31187202383F31288BFF36F8F80
:103EE400013275F1FF3324DA6FF001032D49D1E972
:103EF40000209B1A4FF0FF3262EB00009E1B60EB28
:103F04000500012E70F1000301DA01260020C4E946
:103F14000460254ED6F800C07568B44508BF4FF05C
:103F2400000CBCF1000F0DD1C4E900652C60746075
:103F34001CE0FFF77DFF013645F10005361845EB1F
:103F4400E070E4E7DCE90420D4E90431934271EB46
:103F5400000E1DDAD21ADCF8043060EB0100CCE963
:103F64000420C4E900C31C60CCF804403368B342A5
:103F740009D09C4207D10D4B1C6824B9FFF77EFF82
:103F84002146FEF7CBFB87F31188BFF36F8FF8BD93
:103F94009B1A61EB0001AC45C4E90431C4D0DCF8E0
:103FA40000C0BEE7F804002080020020F80A0020C8
:103FB4002DE9F84FEFF3118C202383F31288BFF31C
:103FC4006F8FDFF8B0A0DFF8B0900024C9F80000CC
:103FD400DAF800000025504508BF0020274FE046CE
:103FE400D7E90021D9F8003078B3D0E9046C4FEA5E
:103FF400E37EB3427EEB0C0B05DAF61A6CEB0E048F
:10400400C0E9046421E0B21841EBE671C0E904455B
:10401400C7E90021FFF716FF88F31188BFF36F8FFC
:1040240083689847EFF31188202383F31288BFF342
:104034006F8FD9F80030DAF800009B1B5045C44656
:10404400C9F80030CBD1D7E9002100249A1841EBFC
:10405400E373C7E90023C9F80040FFF70FFF2146C7
:10406400FEF75CFB88F31188BFF36F8FBDE8F84F50
:10407400FFF794BE80020020F80A0020F804002014
:1040840010B5EFF31184202383F31288BFF36F8FED
:10409400FFF7CEFE0346054AD2E90001181841EBAA
:1040A400E37184F31188BFF36F8F10BDF80400200F
:1040B400F8B50446EFF31187202383F31288BFF386
:1040C4006F8F026822B187F31188BFF36F8FF8BD39
:1040D400D0E90A36581C46F10001022871F10001AA
:1040E40027D3012B76F10001BCBF012316465D1EC8
:1040F40046F1FF3601F0CFFC013041F100014019D7
:1041040046EB0101012871F1000139DB01F0C3FC28
:10411400013041F100016FF00102401946EB010347
:104124004FF0FF31121A61EB030320461749FFF7E2
:10413400C5FE236B01332363236A6BB187F31188B4
:10414400BFF36F8F2046236A9847EFF3118720232C
:1041540083F31288BFF36F8F54F8185FA542B2D06F
:10416400002DB0D0284601F0F4FB0023AB6787F3A1
:104174001188BFF36F8F2846BDE8F84001F0C0BB3B
:104184006FF001024FF0FF33CFE700BFB5400000EE
:104194002DE9F04105461C4690461F46EFF3118673
:1041A400202383F31288BFF36F8FB4F1FF3F08BF5E
:1041B400B2F1FF3F05D186F31188BFF36F8FBDE8DD
:1041C400F081531C74F1FF3309DB012A74F10003FD
:1041D400BCBF0122002412F1FF3844F1FF37284606
:1041E40001F040FCDDE906010023C5E90A012B6367
:1041F40042463B4628460249FFF760FEDBE700BF24
:10420400B540000010B50A4C23681BB1012323609C
:10421400002010BD00F0ECF80028F7D00138062883
:1042240003D8044B53F8200010BD034810BD00BF51
:10423400FC0A002040600000FE8FFFFFBFF34F8F99
:104244000549064BCA6802F4E0621343CB60BFF32E
:104254004F8F00BFFDE700BF00ED00E00400FA054A
:1042640030B44FF0FE320025074B084C084949682A
:10427400C3F80024C3F80424C3F80824C3F80C24A6
:10428400C4F8005530BC0847001084500000845026
:1042940088020020024BD0E90012C3E900127047E3
:1042A4008802002010B5044650B1636813F0685FBB
:1042B40005D0064A934202D000236260236010BDF9
:1042C400034B04485B689847EFE700BF2C5F5CA989
:1042D400880200205C600000C8B143680D4A934224
:1042E40013D013F0685F0ED0012350E8002F194655
:1042F40040E8001C9CF0000FF7D1012AF5D0BFF371
:104304005F8F0020704704487047044870476FF47B
:10431400E04070472C5F5CA9E98FFFFFEA8FFFFF45
:10432400034680B1426809498A420AD012F0685FA4
:1043340005D0BFF35F8F002210461A60704704480F
:104344007047044870476FF4E04070472C5F5CA9E5
:10435400E98FFFFFEA8FFFFF10B5044620B1002369
:10436400034A2360626010BD0248FFF779FFF6E755
:104374003A00003A8460000070B5194CD0F804C0CB
:104384000668C4F804C0D0F808C0C068C4F808C0FF
:10439400E06026600868134B134D18604868D5F830
:1043A40018215860886812F0685F9860C8680969C5
:1043B400D860196112D000230C4A05F58A70C5F83B
:1043C4001431C5F8B831C5F81821C5F8BC21B04777
:1043D400236805F5DC70BDE87040184770BD00BF68
:1043E400A402002090020020140B00202C5F5CA982
:1043F40038B500F02FF820B1032400F063F820460C
:1044040038BD00F031F898B900F0ACF898B90F4D08
:10441400D5F828391B0EF02B08D1D5F8242A0C4BDB
:104424009A420AD0072400F017F8E6E70624FAE7D0
:104434000424204638BD0024F5E7012000F092F85A
:1044440004460028F7D1C5F80C0AD8E700108450B8
:104454000000E0200020704700207047014BC3F8A3
:10446400040A70470010845010B5114800F048F851
:1044740000B110BD0F4800F043F80028F9D10E4CEC
:10448400204600F03DF80028F3D10C4B0C481C608A
:1044940000F036F801460028EBD100F02DF8044670
:1044A40008B1204610BD00F03FF82046FAE700BFEF
:1044B400E4020020E0020020DC020020D4020020FC
:1044C400D802002008B5084800F024F8074800F096
:1044D40021F8074800F01EF8064800F01BF8BDE874
:1044E400084000F00BB800BFE4020020E002002006
:1044F400DC020020D802002000207047704700BF73
:1045040008B5034B02681B6810689847002008BD73
:10451400A402002008B5034B02685B681068984742
:10452400002008BDA402002070B5094C094D206983
:10453400AB68984718B1084B08485B689847002156
:10454400074AEB6811602069BDE87040184700BF56
:1045540090020020A402002088020020A86000002D
:10456400100B0020F8B51A4D1A4E0446B26828699B
:104574009047E8B9184F3B684CB1A3B1012B19D04F
:10458400013B3B602869F36898470020F8BD43B9B4
:104594000121124AC2F800151149D1F81029002A44
:1045A400FBD101333B60F368286998470020F8BDCC
:1045B4000C48F8BD0A4AD2F81039002BFBD1074A3F
:1045C4006FF07E40C2F80035FFF748FF3B68D7E73D
:1045D40090020020A4020020100B00200000845050
:1045E40000108450E98FFFFF0CB430B589B0054644
:1045F4000C461C22002101A801F0E6FA02230595CD
:104604008DF806300D4B029323462CB1B4F1004FC4
:1046140028BF4FF00043013B1D440DAA0C9901A88B
:104624000695009200F00CF814B1059B00221A7054
:1046340009B0BDE8304002B0704700BFDD5B000048
:104644002DE9F04F43688DB0154680460293837878
:104654009A0740F10D8100240E78002E00F00A81A3
:10466400252E0BD04B1C0393013441463046029B4C
:1046740098470028C0F2F6800399EDE74E788B1C2A
:10468400252E0393F0D00027B946BB46BBF11F0F7C
:1046940038D8A6F12003102B0AD8DFE803F02A0942
:1046A40009300909092109090928092D09091F00E7
:1046B400A6F13003092B33D92A2E37D11BF0400F32
:1046C40055F8043B40F08280002BA7BF4BF0200B31
:1046D4009946C3F100094BF0280B01E04BF0010BA4
:1046E400039B13F8016B0393002ECFD130E04BF002
:1046F400020B4BF0040BF3E74BF0080BF0E74BF025
:10470400100BEDE7BBF17F0F19D8A6F13003092B8D
:10471400D2D81BF0400F03D00A2101FB0737DFE793
:104724000A214BF0200B01FB0939D9E72E2E06D1C3
:104734001BF0400F40F09E804BF0400BD0E76C2EF6
:1047440031D02BD8682E36D06A2E3CD04C2E3AD09D
:10475400002F46F02003B8BF2BF04002A3F16501FF
:10476400BCBF00271FFA82FB022901D9612B2FD17C
:1047740007350727DFF8ACA225F0070508351BF03D
:10478400080F66D00AEB070B56465E4563D1A4EBCF
:104794000A0AA9EB070906EB0A026FE1742E9FD0FF
:1047A4007A2E9DD0D4E71BF0800F18BF4BF4007B0A
:1047B4004BF0800B94E71BF4807F18BF4BF4007B15
:1047C4004BF4807B8CE74BF4207B89E71F4687E71B
:1047D400A6F16301122900F2F080DFE811F0130062
:1047E4004F00EE00EE00EE00EE004F00EE00EE0093
:1047F400EE00EE00EE00FE00E900EE00EE001B000D
:10480400EE00AF0055F8043B01270DF1180A8DF8AE
:104814001830B4E755F804AB834BBAF1000F08BF66
:104824009A461BF0400F504614BF39464FF0FF31F3
:1048340001F05BF90746A2E741462020029B984716
:1048440000280FDB013EB742F6D34C44B146A41B0B
:1048540098E74E46F7E7414616F8010B029B984746
:10486400002892DA98F8023043F0040388F8023002
:104874004FF0FF3420460DB0BDE8F08F1BF0800FE1
:1048840034D01BF4007F2CD0073525F00705AA4649
:1048940069685AF8080B2BF010050029ADB237DA15
:1048A400404245F4806561EB41010DF1180B0A2388
:1048B4005A4601F026F9A0EB0B0301936B0662D56F
:1048C400019B25F001019F4289B240F3A180002E93
:1048D40000F0998015F0100240F09C80BB460D4614
:1048E40023E0AA465AF8040BC117D4E7AA461BF4DE
:1048F400807F5AF8041B01D10846F5E71BF4007FBA
:1049040019BF48B241F3C01108B241F3C031C2E744
:1049140050EA0103C9D11BF0400FC6D0002FC4D107
:104924002BF01102BB46019795B240F2064115EAFD
:1049340001021CBF0BF1010B00222CE02BF0100232
:104944000A231FFA82FB1BF0800C49D01BF4007170
:1049540015BF0735AA4625F007055AF8040B1EBFF4
:10496400AA4669685AF8080B50EA010545D12BF0AC
:1049740016051BF0400FADB242D0002F40D12BF0F2
:104984001702019795B215F0100248D0019B002E32
:1049940042D103F1010B29075AD4EB0706D5D945B7
:1049A4006FDDA9EB0B030199CB465F185B4649E029
:1049B4004BF0100B10237826C5E7782B04D1C6F1F1
:1049C400780343F01003BEE741462520029B984735
:1049D4000028FFF647AF023447E608230026B2E773
:1049E400AA461BF480715AF8040BBDD01BF4007165
:1049F4001ABFC0B2614680B2B6E72BF0060295B288
:104A04000DF1180B54E725F01105BB46ADB28CE748
:104A14000D46B8E73B460D4603F1020BBBE7DDF854
:104A240004B082E74962000042620000CDE904322A
:104A340041462020029B98470028FFF613AF049BB1
:104A4400059A01339945F1DCA4EB0B019B46CC1884
:104A54000AB341463020029B98470028FFF602AF74
:104A64008EB901342744391B019B994224DC1D462D
:104A740055BB019AA9EB0B095546224414469144AF
:104A840033E0019F92E7023441463046029B984747
:104A94000028E7DAE6E640F206410D42E2D015F0DE
:104AA400020F04F10104414614BF2B20202015F409
:104AB400806F18BF2D20E9E741463020029B013466
:104AC40098470028CFDACDE606AB013D4146585D54
:104AD400029B98470028CBDAC4E641462020029B7B
:104AE400013498470028FFF6BDAEA9EB0403002B60
:104AF400F3DCC1E5704700EBC10040884008704713
:104B0400F8B50346FFF7F7FFB0FA80F0C0F11F00D5
:104B140003EB800CDCF81060CA00171D0C4606324B
:104B24008DB256B9012101FA00F0D9680143D96068
:104B3400CCF81040DD539D52F8BDF1000431585AB1
:104B4400D85303EBC0009E52C5805D52F4E7043A8B
:104B54002DE9F041CC1D114424F0070421F0070194
:104B64000E1BF708B7FA87F24FF00008C2F12405CC
:104B7400AD000735C2F12002ED0804604146A7608C
:104B8400C4F80C80920004F1100001F01DF86B00D1
:104B940043F0010363807B1B04EBC5025900A4F8B6
:104BA40000805180A21924F83550A2F80280A35342
:104BB40004EBC7035A88294642F001025A80204672
:104BC400BDE8F041FFF79CBF002070470FB407B564
:104BD40004A951F8040B0191FBF78EFC03B05DF8B6
:104BE40004EB04B07047038B13F0070305D103688B
:104BF400002B0CBF002003207047022B05D1408BF3
:104C0400B0FA80F0400980007047012B05D1036899
:104C1400002B0CBF0020052070470020704710B502
:104C24000C4600B111B96FF0150010BD081D00F05D
:104C340093F80028F9D1A368032BF6D9F3E72DE9FB
:104C4400F0410D4607461946281D90461E4600F0C1
:104C540094F8044638B13346424629463846A446B9
:104C6400BDE8F0416047BDE8F08110B4EFF3118274
:104C7400202484F31288BFF36F8F416110BC01219B
:104C8400FBF772BC38B50C46054658B151B10B68F8
:104C940043B14B6833B11C22002100F095FF002082
:104CA4002C6138BD6FF01500FBE770B505460E4664
:104CB400FFF7B5FF041E14DBEFF31182202383F307
:104CC4001288BFF36F8F4FF6FF716B8B2C8B8B4267
:104CD40004F0070407D182F31188BFF36F8F6FF0DC
:104CE4000A04204670BD022C0CD101336B8382F37D
:104CF4001188BFF36F8F0023224631462846FFF701
:104D04009EFFEEE7062C14D8DFE804F00413131317
:104D1400041A0400002333606B683BB9C5E90066DC
:104D2400ACB902212846FBF71FFCDAE71E606E606F
:104D3400F6E782F31188BFF36F8F6FF00404D0E7B6
:104D440082F31188BFF36F8F6FF08504C9E782F394
:104D54001188BFF36F8FC4E7034658B1426802F06D
:104D64000302012A03D0032A04D1026812B10020ED
:104D7400986070476FF0150070474268034602F070
:104D84000302032A4FF00002816014BF104600683A
:104D94005A6070477047FEE7012801D1EFF305839D
:104DA400FEF748BA01460068FFF7F6BF08B5FBF7FF
:104DB400E1FDBDE80840FBF701BE00210120FFF73B
:104DC400EBBF036E83F30B88704761B662B680F362
:104DD4001188BFF36F8F704772B6002383F3118875
:104DE400BFF36F8FBFF34F8F30BF62B6BFF36F8FC8
:104DF400704772B6002383F31188BFF36F8FBFF33C
:104E04004F8F20BF80F31188BFF36F8F62B6704756
:104E140040E800F313F4803FD8B208BF6FF01500E8
:104E2400704730B50C684B6885B00A894D89009489
:104E3400013B24F01F04234402F01F0242EA4512FE
:104E440023F01F0369468DF808200393FCF7DEF86E
:104E540005B030BD08B5FCF799FA002008BD0C2256
:104E64000369C9B201FB0233186C00F007007047F4
:104E740070B5C9B20369EFF31185202484F3128855
:104E8400BFF36F8F0C2606FB0134246C14F0C004AE
:104E940008D0A24206D085F31188BFF36F8F4FF07C
:104EA400FF3070BD012206FB01331A6485F31188BB
:104EB400BFF36F8F436803EBC1035B68984700201F
:104EC400EFE78022FFF7D4BFF8B5069F0469C9B2A3
:104ED400EFF31186202585F31288BFF36F8F0C251D
:104EE40005FB0144256C05F0070CBCF1010F0CD146
:104EF400276486F31188BFF36F8FC4E90E234368D8
:104F040053F8313098470020F8BD05F0C005AF4292
:104F140086F31188BFF36F8F0CBF6FF077004FF0EB
:104F2400FF30F1E713B580240094FFF7CDFF02B002
:104F340010BD10B41C240069CBB203FB0400002193
:104F440010BC10470020FDF77BBD002000F09EBB85
:104F54001046FEF79FBB436800205B681B690B602B
:104F64007047436802EA01005B6821EA0201986025
:104F74000020D9607047436800205B6899607047DF
:104F8400436800205B68D960704743685A68536877
:104F940021EA03000B4090600020D360704710B5F5
:104FA40003695868F8B1884219D19C680868A1421D
:104FB400586000D19860002008602AB15A680A60DD
:104FC4009A68596002B99960002010E0814206D1C4
:104FD4000868206098688142EDD19C60EBE7044644
:104FE40000680028F2D1002AE8D16FF0150010BD46
:104FF40030B543681360057A446804EBC504A342E2
:1050040002D36FF0010030BD5C798C4201D00833CB
:10501400F0E70020F7E743681B68D3F88004C3F87F
:105024008004704710B544682368C3F84415C3F876
:1050340048250022C3F82021D3F82011C3F85821B1
:10504400D3F858216268D20611D50269D2682AB110
:10505400D2F8C01041F00101C2F8C0100821426822
:105064001268C2F800154FF48002C3F80423012229
:105074009A6010BD0369DA6813680BB15268184767
:10508400704770B586B0066904460D4614220021A7
:1050940001A800F099FD02238DF80430F36820463E
:1050A4009A6D1B6E01A9CDE903350292FFF7E2FF69
:1050B40006B070BD70B50E6805460C4686B07EB16C
:1050C4001422002101A800F07FFD042328460DEBE3
:1050D40003018DF804300296FFF7CCFF0023236010
:1050E40006B070BD10B586B004461422002101A894
:1050F40000F06AFD0523204601A98DF80430FFF76E
:10510400B9FF06B010BD70B5436805691B68EFF3BD
:105114001186202080F31288BFF36F8FEC68A06D96
:1051240098B1606EA0B96166EC68A266C3F83415E4
:10513400C3F83825D3F8002242F02002C3F8002235
:1051440086F31188BFF36F8F70BD6FF00C00F7E723
:105154006FF00F00F4E70369D86820B10160DB68E1
:1051640000205A6070476FF08500704710B50269DF
:105174004368D0681B6860B9D3F8104164B1926980
:1051840012780A70C3F81001D3F8102101221A60B2
:1051940010BD6FF08500FBE74FF0FF30F8E738B53E
:1051A400436805691C68EB689A6DD2B15B6E53B1B4
:1051B400D4F8003223F02003C4F800320023C4F8EA
:1051C4004C31D4F84C31E868803000F072FC002097
:1051D400EB6883F8CA000123EA6882F8CB30636085
:1051E40038BD6FF00D00FBE708B5C368DA68D9690C
:1051F400521A0FD0082A28BF08225A61C368996935
:105204001961C3689868D9690144986900F0CFFCB2
:10521400012008BD1046FCE773B5066814460B462A
:10522400D6F83C55F1B10021184600F0CDFC0346F8
:105234000146C6F8341500210120C6F83845C6F8E1
:105244001011D6F81021F062D6F810010028FBD016
:10525400C6F81011D6F81021D6F83C052BB9C0B207
:1052640002B070BD05246946E3E78542F7D11A19F7
:105274009A4201D10020F3E713F8011B0029F7D06B
:10528400EDE770B504460269EFF31186202383F33A
:105294001288BFF36F8FD068D0F8C03023EA0103BF
:1052A400C0F8C030D568D5F8C03073B9022907D129
:1052B4000522606805F1C401FFF7AEFF85F8C90057
:1052C400002263681B68C3F8002586F31188BFF3C6
:1052D4006F8F70BD02680346D2F8580140B95B680D
:1052E4009B0706D4D2F82001003818BF012070476C
:1052F4000120704710B504464068FFF7EBFFCB6808
:1053040018B9012283F8CD2010BD002283F8CD20E6
:105314004FF0FF32CB682046C3F8BC20CB68BDE811
:105324001040D3E90412FFF77DBE10B504460022F5
:1053340001210920FBF7A0FD0920FBF781FD204690
:10534400BDE81040FCF79CBC10B5044600220121C6
:105354000820FBF791FD0820FBF772FD2046BDE80D
:105364001040FCF78DBC2DE9F047D0F804A0174697
:105374009AF80820054689460469DAF80080002A6C
:1053840075D1E26892F8CA10002973D192F8CB0063
:1053940000F0FF0100286DD10520536793FBF0F363
:1053A400E2689367E368C3F85890E368DF65E368ED
:1053B4001966E3685966E3689966DAF80430DA0630
:1053C40023D5E16891F8C960FEB1BE4228BF3E46CC
:1053D40048463246C43100F0EAFBBF1BB14414D145
:1053E400E268314692F8C93028469B1B82F8C930DE
:1053F400FFF747FEE16828465831FFF75BFE284671
:10540400FFF770FE0020BDE8F0870023C8F834954C
:10541400C8F83875C8F81031D8F810210122C8F836
:105424004C31D8F84C31E36883F8CA20DAF80430F8
:10543400DB0618D5EFF31181202383F31288BFF321
:105444006F8F2B69DB682BB1D3F8C02042F00202C6
:10545400C3F8C02008226B681B68C3F8002581F3D9
:105464001188BFF36F8F0123C8F80030CAE76FF0CB
:105474008500C8E76FF00F00C5E7F8B5456BEB682A
:1054840093F8CE3003F0FF0703BB10222E68736835
:105494001B68C3F80823EB68D3F8B820D96E91428F
:1054A4001FBFDA66EB685A6FDA67EB68D3E91B4211
:1054B400A41A0CD5C3F8B820EB68D3E917128A42B2
:1054C4000AD8102273681B68C3F80423F8BDD3E913
:1054D4001712A018884206D98C1A002CF1DD9B6D96
:1054E400C3B1012708E0002CEBD0D3E91E128A4295
:1054F40015DA9B6D002BE4D021463046FFF7C1FD41
:10550400EA68136E23441366EA68136F234413672F
:10551400002FD6D0E868803000F0CBFAD1E7521AD9
:10552400DA67CEE738B5426803691568DA689168C6
:1055340051B1002482F8CD40D868203000F0B9FA87
:1055440001232046EB6038BD6FF00D00FBE7436B91
:105554001868FFF7E7BF002200F150039B009BB2DD
:1055640003F1502303F580331A601B687047FEF77C
:1055740049BE08B5FBF71AF9FBF7E6F9BDE80840A0
:10558400FEF740BE4FF47F03D3F83001D3F8343133
:10559400BFF34F8FC0F30B00A0F1090358425841E9
:1055A40070474FF47F02D2F83031D2F83401BFF3A0
:1055B4004F8FC3F30B03092B03D1431E58425841A9
:1055C400704700207047004700F0BEB840F000402C
:1055D400C1F88000C2F880007047F7B5044618B1DE
:1055E400012824D003B0F0BD4FF050230222C3F8A9
:1055F400082301220646DA60C3F80401D3F8043113
:10560400012342F210754FF050278DF80730DCB1BA
:10561400012CE7D1D7F80C3403F480338EBB002B74
:10562400E0D00120FFF7D0FF013DF3D1DAE74FF0DE
:1056340050230022C3F808035860C3F80021D3F8AC
:1056440000310DF10706DBE7D7F8183403F4803393
:105654003EB9002BC6D00120FFF7B6FF013DF3D1C0
:10566400C0E7D7F8182402F003023270002BB9D037
:105674009DF807000128B5D1FFF7A6FF013DC6D16B
:10568400B0E7D7F80C2402F00102EEE7FFF7A5BF5C
:10569400F7B51646DDE90847019001A81D46FDF758
:1056A4005FFA019BB6F1000C18BF4FF0010C00EB40
:1056B40083000B1E18BF0123002D43EA4C0314BFC3
:1056C4004FF00C0C4FF0000C002C43EA0C0314BFF9
:1056D4004FF4E06C4FF0000C002F43EA0C0314BFAE
:1056E4004FF4403C4FF0000CD0F8002243EA0C0386
:1056F40022EA030301B109780EB136787600194322
:105704000DB12D78AD0031430CB124782402294326
:105714000FB13F783F040C433C43C0F8004203B050
:10572400F0BD1FB50DF10F03019300238DF80F1089
:105734001A4619460093FFF7ABFF05B05DF804FB6A
:10574400FDF7BEBAFDF79CBA08B1FBF74DBE704732
:10575400704740B1C368587810F001001EBF187834
:10576400B0FA80F040097047EFF31183202383F3EC
:105774001288BFF36F8FFEE708B5FFF7F5FF10B58A
:10578400D0E9003433B90020E268537843F00103D0
:10579400537010BD204698470028F4D00028B8BFA5
:1057A4004042FF28A8BFFF20E3681870ECE700F030
:1057B4000BBA00F0FCB982684369134313F0030386
:1057C4000CD1C3600169994201D800207047C168B7
:1057D400013311604169C2600A44F3E76FF01500B8
:1057E400704710B5C0E90432002381608361044628
:1057F400FFF7E1FF0028A8BFC4E9004410BDF8B5D5
:1058040004460D46EFF31186202383F31288BFF379
:105814006F8FC7686FB900F0E8F850B187674561CA
:1058240000F06EF8314604F10800BDE8F840FEF7D8
:1058340039B9E3682B60A369E560013BA36186F392
:105844001188BFF36F8FF8BD202408B5EFF31183DF
:1058540084F31288BFF36F8FFFF7BEFAF6E790F96F
:105864000E308B4201D0FEF7D9B8002070470346B2
:105874000020C3E90033C3E902007047EFF3058059
:10588400003818BF01207047FEF71EB9D0E9003276
:1058940013605A600023C0E90033704708B5FFF76E
:1058A400F5FF437B23F0020343730023836008BDA9
:1058B40038B504460D46FDF793FF637B43F00203BE
:1058C4006373E5B1A5602B689D4209D16B68C4E997
:1058D40000531C606C6012E06A689A42F6D01B6840
:1058E400002BF3D094F90E2093F90E108A42F3D0D2
:1058F4009142F1DD5A68C4E9003214605C6038BD3D
:1059040010B5EFF31184202383F31288BFF36F8F54
:10591400FDF77EFF84F31188BFF36F8F10BD10B5C0
:105924000446183000F09EF8EFF31181202383F32E
:105934001288BFF36F8F627B12F0100204D081F3E0
:105944001188BFF36F8F10BD2046BDE81040FDF7EE
:1059540093BF08B5EFF31181202282F31288BFF3BD
:105964006F8F83680BB1FFF799FF81F31188BFF341
:105974006F8F08BD38B50446EFF31185202383F3F8
:105984001288BFF36F8F437B13F0280F0BD183680A
:105994000BB1FFF783FF637B51B903F0FB03204690
:1059A4006373FDF735FF85F31188BFF36F8F38BD3F
:1059B40003F0EB03F3E701211838FFF7DBBF08B569
:1059C4000346EFF31181202282F31288BFF36F8F15
:1059D4000068834207D008B1FFF760FF81F31188A4
:1059E400BFF36F8F08BD0020F8E738B5EFF31185DA
:1059F400202383F31288BFF36F8F0468A0420DD075
:105A040034B12046FFF74AFF04F1180000F02AF8E9
:105A140085F31188BFF36F8F204638BD0024F7E764
:105A2400EFF31181202282F31288BFF36F8F027B80
:105A3400D2070CD581F31188BFF36F8F002383F352
:105A44001188BFF36F8F0423184602DF7047437B2E
:105A54001B0704D581F31188BFF36F8F70470122B0
:105A6400FDF70ABF10B5EFF31184202282F31288E8
:105A7400BFF36F8F03683BB1FEF7E4F9002084F3B2
:105A84001188BFF36F8F10BD6FF01500F7E708B5ED
:105A9400FEF7F6FA08BDFEF7F3BA0023C0E90812D0
:105AA40000F11802C0E90622C0E90033036343632E
:105AB400704710B50446FFF7D5FFA8B9636A0BB168
:105AC4002046984704F11800FFF779FF60B1FFF70B
:105AD40017FFEFF31180202383F31288BFF36F8F36
